:10000000ABC00000C4C00000C2C00000C0C00000FF
:10001000BEC00000BCC00000BAC00000B8C00000F4
:10002000B6C00000B4C000005CC20000B0C0000058
:10003000AEC00000ACC00000AAC00000A8C0000014
:10004000A6C00000A4C00000A2C00000A0C0000024
:100050009EC000009CC000009AC0000098C0000034
:1000600096C0000094C0000092C0000090C0000044
:100070008EC000008CC000008AC0000088C0000054
:1000800086C0000084C0000082C0000080C0000064
:100090007EC000007CC000007AC0000078C0000074
:1000A00076C0000074C0000072C000002C034C0039
:1000B00055004600410020004D00650064006900C5
:1000C0006100200043006F006E00740072006F003A
:1000D0006C006C00650072000000180344006500AD
:1000E00061006E002000430061006D006500720039
:1000F000610000000403090409022200010100C09C
:10010000320904000001030000000921110100016F
:10011000222B0007058103080001120110010000D5
:100120000008EB036A20010001020001050C09012F
:10013000A10109B009B109B309B409B509B609B7F4
:1001400009CD09E209E909EA7501950B15002501B8
:10015000810695058101C00011241FBECFEFDAE0B2
:10016000DEBFCDBF11E0A0E0B1E0E6EAF0E102C001
:1001700005900D92AE31B107D9F711E0AEE1B1E0D3
:1001800001C01D92AE32B107E1F72FD08AC738CF38
:1001900080911E01880F880F80931E01E9B1E370E2
:1001A000E82BE0931E01F0E0EF70F070E35FFE4F8C
:1001B0008081089584B7877F84BF88E10FB6F89463
:1001C00080936000109260000FBE81E084B985B911
:1001D00083E08AB98BB990E080E80FB6F8948093F9
:1001E0006100909361000FBE64C1E4DF789480E009
:1001F00091E087D61CD5FBCF8BB18F70806A8BB90D
:1002000008958BB18F7080618BB9089580E091E083
:100210004CD69091E20094609093E200882311F014
:1002200090E601C090E98BB18F70892B8BB908954E
:1002300080E091E00FC580910B0190910C01009737
:1002400029F0019790930C0180930B0108950F936F
:100250001F93CF93DF93E9019BDF21E0189920E002
:1002600099819E7F922B998391E0813009F090E0F3
:10027000292F220F99819D7F922B998391E08F3FA7
:1002800009F090E0990F990F89818B7F892B8983E1
:1002900082E090E0F8019183808380E0DF91CF914C
:1002A0001F910F9108950895933089F0943028F4A8
:1002B000913049F1923061F505C09132D1F092321E
:1002C00039F51CC082E290E0E8EFF0E025C0813013
:1002D00041F0813018F08230D9F406C0E4EFF0E04C
:1002E00005C0EAEDF0E002C0ECEAF0E0849190E0B5
:1002F00013C089E090E0EAE0F1E00EC08BE290E00C
:10030000ECE2F1E009C082E190E0EAE1F1E004C052
:1003100080E090E0E0E0F0E0DA011196FC93EE93EB
:100320000895982F2AC09093E900981739F070919A
:10033000EC002091ED005091F00003C0242F762FA7
:1003400050E021FF19C03091EB003E7F3093EB006D
:100350003091ED003D7F3093ED003091EB00316046
:100360003093EB007093EC002093ED005093F0007D
:100370002091EE0027FF07C09F5F9730A0F2809387
:10038000E90081E0089580E008958091260187FFCB
:1003900013C004C0809125018823B9F08091E80042
:1003A00082FFF8CF8091E8008B778093E800089572
:1003B00080912501882349F08091E80080FFF8CFE3
:1003C0008091E8008E778093E80008958091E400A2
:1003D0009091E50045E601C0C9012091EC0020FFA5
:1003E00023C02091E80020FD15C020912501222383
:1003F00099F0253099F02091EB0025FD11C0209156
:10040000E4003091E5002817390739F3415021F70E
:1004100084E0089580E0089582E0089583E00895DF
:1004200081E0089580E008952091E80022FFDDCF6B
:10043000F9CF0F931F93CF93DF9346D04DD0C8EDE4
:10044000D0E088818F7788838881806888838881DD
:100450008F7D888319BC1092250110922101109282
:1004600023011092220100EE10E0F80180818B7FC1
:10047000808388818160888380E060E042E051DF92
:10048000E1EEF0E080818E7F8083E2EEF0E080811B
:1004900081608083808188608083F80180818E7F85
:1004A0008083888180618883DF91CF911F910F9134
:1004B0000895E7EDF0E08081816080838AE482BF67
:1004C00081E080932401B5CFE8EDF0E080818E7F5C
:1004D00080831092E20008951092DA001092E100F9
:1004E00008951F920F920FB60F9211242F933F93EE
:1004F0004F935F936F937F938F939F93AF93BF932C
:10050000EF93FF938091E10082FF0AC08091E200A7
:1005100082FF06C08091E1008B7F8093E1008BDE3B
:100520008091DA0080FF1DC08091D80080FF19C043
:100530008091DA008E7F8093DA008091D90080FF6D
:100540000CC080E189BD82E189BD09B400FEFDCF08
:1005500081E08093250150DE04C019BC1092250172
:1005600050DE8091E10080FF18C08091E20080FFA2
:1005700014C08091E2008E7F8093E2008091E200BF
:1005800080618093E2008091D80080628093D800DF
:1005900019BC85E08093250149D38091E10084FF57
:1005A0002DC08091E20084FF29C080E189BD82E1F5
:1005B00089BD09B400FEFDCF8091D8008F7D809366
:1005C000D8008091E1008F7E8093E1008091E2006D
:1005D0008F7E8093E2008091E20081608093E20050
:1005E00080912101882321F48091E30087FF02C0DC
:1005F00084E001C081E08093250118D38091E1005F
:1006000083FF22C08091E20083FF1EC08091E10041
:10061000877F8093E10082E0809325011092210181
:100620008091E1008E7F8093E1008091E2008E7FD7
:100630008093E2008091E20080618093E20080E09C
:1006400060E042E06EDEF2D2FF91EF91BF91AF9198
:100650009F918F917F916F915F914F913F912F91DA
:100660000F900FBE0F901F901895AF92BF92CF9230
:10067000DF92EF92FF921F93CF93DF93EC017B0108
:100680006A01A4DE182F8823A9F5C114D10439F01A
:10069000F60120813181E21AF30AC20FD31FAA2486
:1006A000BB2423C08091E80085FD16C08091E8003E
:1006B0008E778093E800BBD2C114D10449F0F601D3
:1006C000808191818A0D9B1D9183808315E012C0EA
:1006D0007DDE882351F00DC089918093F10008944C
:1006E000E108F1080894A11CB11CE114F104D1F651
:1006F00001C0182F812FDF91CF911F91FF90EF90B4
:10070000DF90CF90BF90AF90089540912C01509111
:100710002D014617570720F4BA01FC0140E03CC008
:1007200061157105D1F74091E8004E774093E800DC
:10073000F4CF80912501882309F444C08530F1F17C
:100740008091E80083FD3CC08091E80082FD30C0CC
:100750008091E80080FF20C09091F3008091F2002A
:10076000392F20E090E0822B932B06C041914093DB
:10077000F1006150704001966115710519F08830E3
:100780009105A0F341E08830910509F040E08091A7
:10079000E8008E778093E8006115710551F64423D7
:1007A00041F606C080912501882361F0853061F013
:1007B0008091E80082FFF6CF80E0089583E00895FD
:1007C00081E0089582E0089583E008956115710540
:1007D00029F44091E8004B774093E800582F492FC7
:1007E0002BC0809125018823D9F18530A9F1809112
:1007F000E80083FD33C08091E80082FFF2CFE52F4F
:10080000F42F08C08091F10081935E2F4F2F61502B
:10081000704069F05E2F4F2F9091F3008091F200AD
:10082000392F20E090E0822B932B009759F780918D
:10083000E8008B778093E8006115710591F606C09A
:1008400080912501882361F0853061F08091E80076
:1008500080FFF6CF80E0089583E0089581E0089559
:1008600082E0089583E0089540912C0150912D017C
:100870004617570720F4BA01FC0140E03EC061155D
:100880007105D1F74091E8004E774093E800F4CF2E
:1008900080912501882309F446C0853009F43FC0C2
:1008A0008091E80083FD3DC08091E80082FD31C069
:1008B0008091E80080FF21C09091F3008091F200C8
:1008C000392F20E090E0822B932B07C04491409376
:1008D000F10031966150704001966115710519F073
:1008E0008830910598F341E08830910509F040E0A7
:1008F0008091E8008E778093E8006115710541F6DC
:10090000442331F606C080912501882361F08530AB
:1009100061F08091E80082FFF6CF80E0089583E0E7
:10092000089581E0089582E0089583E008950F938B
:100930001F93CF93DF93CDB7DEB7AC970FB6F89484
:10094000DEBF0FBECDBF8091F10080932601809164
:10095000F100809327019091F1008091F100E8E28D
:10096000F1E09093280181839091F1008091F10052
:1009700090932A0183839091F1008091F1009093EC
:100980002C01858355DC8091E80083FF36C180917E
:10099000260120912701253009F484C0263040F437
:1009A0002130A1F1213070F0233009F026C12EC092
:1009B000283009F4F4C0293009F403C1263009F0C5
:1009C0001CC194C0803821F0823809F016C108C0DB
:1009D0008091220190912301992371F082600CC0D3
:1009E00080912A0187708093E9009091EB0081E06B
:1009F00095FF80E01092E9009091E800977F909336
:100A0000E8008093F1001092F100D4C0882319F01F
:100A1000823009F0F2C090E08F719070009729F059
:100A20008230910509F0E9C00BC080912801813026
:100A300009F0E3C0233009F080E0809323012CC04B
:100A400080912801882341F520912A01277009F41B
:100A5000D4C02093E9008091EB0080FF1DC08091FD
:100A60002701833021F48091EB00806213C08091D4
:100A7000EB0080618093EB0081E090E002C0880F82
:100A8000991F2A95E2F78093EA001092EA0080917C
:100A9000EB0088608093EB001092E9008091E80001
:100AA000877F8BC0882309F0A8C0109128011F7789
:100AB0000FB7F8948091E800877F8093E80065DCA9
:100AC0008091E80080FFFCCF8091E3008078812B4B
:100AD0008093E30080688093E300112311F083E0AA
:100AE00001C082E0809325010FBF87C0805882300B
:100AF00008F083C0809128019091290123E08C3D6A
:100B00009207A9F583E08C838AE28B835FB7F89420
:100B1000DE01139680E090E04EE061E2E42FF0E029
:100B200060935700E49180FF03C0E295EF704F5F40
:100B3000EF702E2F30E0EA3018F0295C3F4F02C0F2
:100B4000205D3F4F13963C932E9312970196129679
:100B50008431910519F75FBF8091E800877F80930A
:100B6000E800CE0103966AE270E0CFDD12C060912A
:100B70002A01AE014F5F5F4F97DBBC01009709F47C
:100B80003CC08091E800877F8093E80089819A814A
:100B90006BDE8091E8008B778093E8002EC0803870
:100BA00061F58091E800877F8093E80080912101C2
:100BB0008093F1008091E8008E778093E800E5DB78
:100BC0001CC08823D1F4909128019230B0F4809118
:100BD000E800877F8093E80090932101D6DB809125
:100BE0002101882321F48091E30087FF02C084E083
:100BF00001C081E08093250109DB8091E80083FF3B
:100C00000AC08091EB0080628093EB008091E80045
:100C1000877F8093E800AC960FB6F894DEBF0FBED6
:100C2000CDBFDF91CF911F910F9108950895CF937C
:100C300080912501882361F0C091E900C77010926E
:100C4000E9008091E80083FF01C071DEC093E900F4
:100C5000CF9108956F927F928F929F92AF92BF92A1
:100C6000CF92DF92EF92FF920F931F93CF93DF9378
:100C700000D00F92CDB7DEB77C016DB67EB6809105
:100C8000E80083FFFBC0F701808190E020912A01FA
:100C900030912B012817390709F0F0C08091270106
:100CA000833009F49AC0843030F4813071F082309E
:100CB00009F0E4C0CBC08A3009F4B0C08B3009F42D
:100CC00099C0893009F0DAC04BC080912601813A81
:100CD00009F0D4C09DB68EB61B821A82809128017D
:100CE000009129018983F70147818DB79EB7841B45
:100CF00091090FB6F8949EBF0FBE8DBFCDB6DEB67C
:100D00000894C11CD11CBC2CAD2CC60160E070E065
:100D100050E0C0D1402F4150C701BE016F5F7F4FEF
:100D200096018E010E5F1F4F92DAF7018581968141
:100D3000009721F04781B60150E0A3D11092E9005D
:100D40008091E800877F8093E8006A817B818B2D0A
:100D50009A2DDBDC8091E8008B778093E8003AC025
:100D600080912601813209F089C09DB68EB600912E
:100D70002C0110912D01C0902801D09029018DB730
:100D80009EB7801B910B0FB6F8949EBF0FBE8DBF10
:100D9000ADB6BEB60894A11CB11C8091E800877F57
:100DA0008093E800C501B80111DD8091E8008E77DD
:100DB0008093E80081E090E0CC2011F480E090E0A6
:100DC0004D2D41509501280F391F081B190BC701E4
:100DD0006C2D69DA9DBE8EBE51C080912601813A8C
:100DE00009F04CC08091E800877F8093E800F7010C
:100DF00080853CC080912601813209F03FC08091FE
:100E0000E800877F8093E800C0DA9091280181E0B4
:100E1000992309F480E0F701808730C08091260192
:100E2000813261F58091E800877F8093E800ADDA38
:100E30008091280190912901807036E096958795E0
:100E40003A95E1F7F7019287818718C080912601D2
:100E5000813AA1F48091E800877F8093E800F70150
:100E60008185928596958795969587958093F100D3
:100E70008091E8008E778093E80087DA0FB6F894C7
:100E80007EBE0FBE6DBE0F900F900F90DF91CF9181
:100E90001F910F91FF90EF90DF90CF90BF90AF9098
:100EA0009F908F907F906F900895CF93DF93FC0178
:100EB0000896DC0185E0ED0119928A95E9F781E059
:100EC000808784EF91E0928781878181628173813D
:100ED0009481992311F044E001C040E028E030E023
:100EE00090E003C09F5F220F331F26173707D0F310
:100EF00042609295907F492B61EC13DADF91CF919C
:100F000008954F925F926F927F928F929F92AF92CD
:100F1000BF92CF92DF92EF92FF920F931F93CF93E6
:100F2000DF9300D00F92CDB7DEB77C014DB65EB631
:100F300080912501843009F07EC0F7018181809382
:100F4000E9008091E80085FF76C07DB66EB64781E6
:100F50008DB79EB7841B91090FB6F8949EBF0FBE44
:100F60008DBF0DB71EB70F5F1F4F19821B821A82EC
:100F7000B02EA12EC80160E070E050E08BD0C70118
:100F8000BE016F5F7F4F40E098018E010E5F1F4FE3
:100F90005ED9182FF70181859285009759F081E07D
:100FA00090E0238534852115310511F080E090E033
:100FB0004C0102C088249924F701C580D680C11451
:100FC000D10491F04A815B818B2D9A2DB6014CD0D2
:100FD00001E0009709F400E0F7014781C6016B2D9D
:100FE0007A2D50E04ED001C000E08A819B810097AD
:100FF00001F1112329F4002319F481149104C9F09B
:10100000F701818592859487838781818093E900A8
:101010008981882311F08093F1006A817B818B2D77
:101020009A2D40E050E021DB8091E8008E7780939C
:10103000E8007DBE6EBE0FB6F8945EBE0FBE4DBE1C
:101040000F900F900F90DF91CF911F910F91FF9014
:10105000EF90DF90CF90BF90AF909F908F907F9058
:101060006F905F904F900895FB01DC0104C08D915B
:101070000190801921F441505040C8F7881B990B0A
:101080000895FB01DC0102C001900D9241505040D7
:10109000D8F70895DC0101C06D9341505040E0F74E
:0610A0000895F894FFCF53
:1010A60000010800001F0102000000000000FF010F
:0E10B60000010000FFFF0000010001FF00002C
:00000001FF
